:100000000C9463000C948B000C948B000C948B006C
:100010000C948B000C948B000C948B000C941804A3
:100020000C948B000C948B000C948B000C948B0024
:100030000C948B000C948B000C948B000C948B0014
:100040000C94CC040C948B000C949A040C947404BF
:100050000C948B000C948B000C948B000C948B00F4
:100060000C948B000C948B000000000024002700EF
:100070002A0000000008000201000003040700003D
:1000800000000000000000000000230026002900FE
:10009000010204081020408001020408102001021F
:1000A0000408102000000000250028002B00040494
:1000B0000404040404040202020202020303030310
:1000C000030302005B0511241FBECFEFD8E0DEBFA3
:1000D000CDBF22E0AAE3B1E001C01D92AF33B20769
:1000E000E1F711E0A0E0B1E0E0E6F1E102C0059047
:1000F0000D92AA33B107D9F710E0C3E6D0E004C0EF
:100100002197FE010E94A308C236D107C9F70E94B9
:100110009A050C94AE080C940000ECE5F1E0A0897F
:10012000B18982E08C93A485B5851C92A685B7859C
:100130008FEC8C93108EA489B58986E08C93A2896C
:10014000B3898C9180618C93A289B3898C918860EA
:100150008C93A289B3898C9180688C930288F389EF
:10016000E02D80818F7D80830895CF92DF92EF9282
:10017000FF920F931F93CF93DF936C017A018B0152
:10018000C0E0D0E0CE15DF0581F0D8016D918D0182
:10019000D601ED91FC910190F081E02DC601099509
:1001A000892B11F02196EECF7E01C701DF91CF910F
:1001B0001F910F91FF90EF90DF90CF9008950895D9
:1001C00080E090E00895FC01538D448D252F30E0B0
:1001D000842F90E0821B930B541710F0CF96089554
:1001E00001970895FC01918D828D981761F0828DA1
:1001F000DF01A80FB11D5D968C91928D9F5F9F735B
:10020000928F90E008958FEF9FEF0895FC01918DFC
:10021000828D981731F0828DE80FF11D858D90E069
:1002200008958FEF9FEF0895FC01918D228D892F06
:1002300090E0805C9F4F821B91098F7399270895EE
:100240008CE591E00E94140121E0892B09F420E063
:10025000822F0895FC01848DDF01A80FB11DA35AE0
:10026000BF4F2C91848D90E001968F739927848FD6
:10027000A689B7892C93A089B1898C9183708064F9
:100280008C93938D848D981306C00288F389E02D9A
:1002900080818F7D80830895EF92FF920F931F934B
:1002A000CF93DF93EC0181E0888F9B8D8C8D981329
:1002B00005C0E889F989808185FD26C0F62E0B8D61
:1002C00010E00F5F1F4F0F731127E02E8C8DE81287
:1002D0000CC00FB607FCFACFE889F989808185FF49
:1002E000F5CFCE010E942A01F1CF8B8DFE01E80FE0
:1002F000F11DE35AFF4FF0829FB7F8940B8FEA8904
:10030000FB89808180620AC09FB7F894EE89FF89DB
:100310006083E889F98980818370806480839FBFCE
:1003200081E090E0DF91CF911F910F91FF90EF90CE
:100330000895CF93DF93EC01888D8823C9F0EA8973
:10034000FB89808185FD05C0A889B9898C9186FDCE
:100350000FC00FB607FCF5CF808185FFF2CFA889CB
:10036000B9898C9185FFEDCFCE010E942A01E7CF9C
:10037000DF91CF91089580E090E0892B29F00E94D1
:10038000200181110C940000089590E0FC01EE58CA
:10039000FF4F2491FC01E057FF4F3491FC01E255DF
:1003A000FF4FE491EE2309F43CC0222339F12330BE
:1003B00091F038F42130A9F0223001F584B58F7D19
:1003C00012C0273091F02830A1F02430B9F4809188
:1003D00080008F7D03C0809180008F7780938000A4
:1003E0000DC084B58F7784BD09C08091B0008F7730
:1003F00003C08091B0008F7D8093B000F0E0EE0FDD
:10040000FF1FEC55FF4FA591B4919FB7F894611170
:1004100004C08C913095382302C0EC913E2B3C9364
:100420009FBF089590910001891324C0E2ECF0E091
:10043000E4919FEF90930001E130B9F098F0E23041
:10044000C9F4909170009D7F9093700091E090931B
:10045000B0009091B100987F94609093B100109299
:10046000B30008C010926E0005C090916F009D7F90
:1004700090936F0060E00C94C501CF93DF9390E000
:10048000FC01E057FF4F2491FC01E255FF4F84919E
:10049000882361F190E0880F991FFC01E859FF4F14
:1004A000C591D491FC01EC55FF4FA591B491611118
:1004B00009C09FB7F8948881209582238883EC91A6
:1004C0002E230BC0623061F49FB7F8948881322FDD
:1004D000309583238883EC912E2B2C939FBF06C0ED
:1004E0008FB7F894E8812E2B28838FBFDF91CF91AF
:1004F0000895CF9380910001873021F08F3F09F05C
:10050000D5C004C0E2ECF0E0C49172C087E08093F3
:100510000001E2ECF0E0E491EF3F09F4C7C0E13004
:1005200009F443C048F1E23009F061C01092B00014
:100530001092B1008091B00082608093B0008091F1
:10054000B10081608093B100E5EBF0E0E491F0E070
:10055000EE0FFF1FEC55FF4F8591949190934D0145
:1005600080934C01E7E9F0E0E491E0934B0161E016
:1005700087E00E943D025EC014BC15BC84B5826059
:1005800084BD85B5816085BDE5EBF0E0E491F0E0E8
:10059000EE0FFF1FEC55FF4F85919491E7E9F0E0D6
:1005A000E491E0934F01C0E025C0109280001092CA
:1005B000810080918100886080938100809181001A
:1005C000816080938100E5EBF0E0E491F0E0EE0FD4
:1005D000FF1FEC55FF4F85919491E7E9F0E0E4911E
:1005E000E0934E0161E087E00E943D022DC0CE2FD6
:1005F000C7FD5CC061E087E00E943D02CC2319F09A
:10060000C23001F517C085B5887F836085BD86E45B
:1006100087BD8FEF9FEFDC018093580190935901C4
:10062000A0935A01B0935B0180916E008260809329
:100630006E003CC08091B100887F83608093B100E0
:100640008DE822C0C130E9F480918100887F81600B
:10065000809381008AED91E19093890080938800D6
:100660008FEF9FEFDC018093540190935501A0938D
:100670005601B093570180916F00826080936F00A4
:1006800015C0C23099F48AED8093B3008FEF9FEFCD
:10069000DC018093500190935101A0935201B093DB
:1006A000530180917000826080937000CF91089513
:1006B0003FB7F89480913F0190914001A091410192
:1006C000B091420126B5A89B05C02F3F19F00196B5
:1006D000A11DB11D3FBFBA2FA92F982F8827820FC8
:1006E000911DA11DB11DBC01CD0142E0660F771F18
:1006F000881F991F4A95D1F708958F929F92AF92C4
:10070000BF92CF92DF92EF92FF926B017C010E9429
:1007100058034B015C01C114D104E104F104F1F070
:100720000E945803DC01CB0188199909AA09BB0969
:10073000883E9340A105B10570F321E0C21AD108AB
:10074000E108F10888EE880E83E0981EA11CB11C18
:10075000C114D104E104F10419F7DDCFFF90EF904B
:10076000DF90CF90BF90AF909F908F9008952FB75C
:10077000F89460913B0170913C0180913D01909112
:100780003E012FBF0895009769F0FC010190002001
:10079000E9F73197AF01481B590BBC018CE591E09B
:1007A0000C94B50080E090E008958F929F92AF92F4
:1007B000BF920F931F93CF93DF93CDB7DEB7A1976F
:1007C0000FB6F894DEBF0FBECDBF19A2423008F4B9
:1007D0004AE08E010F5D1F4F842E912CA12CB12C6D
:1007E000A50194010E948108E62FB901CA010150B8
:1007F0001109EA3014F4E05D01C0E95CD801EC9322
:10080000232B242B252B61F7C8010E94C303A1963B
:100810000FB6F894DEBF0FBECDBFDF91CF911F9111
:100820000F91BF90AF909F908F9008950E94A9085C
:100830001F920F920FB60F9211242F933F934F9355
:100840005F936F937F938F939F93AF93BF93EF9338
:10085000FF938091500190915101A0915201B0916C
:100860005301892B8A2B8B2B51F190914B01E091F5
:100870004C01F0914D018081892780838091500146
:1008800090915101A0915201B0915301181619068F
:100890001A061B06C4F48091500190915101A09159
:1008A0005201B09153010197A109B1098093500100
:1008B00090935101A0935201B093530104C08091D1
:1008C00000010E941202FF91EF91BF91AF919F91A1
:1008D0008F917F916F915F914F913F912F910F90E9
:1008E0000FBE0F901F9018951F920F920FB60F9288
:1008F00011242F933F934F935F936F937F938F9325
:100900009F93AF93BF93EF93FF938CE591E00E9489
:100910002A01FF91EF91BF91AF919F918F917F91AC
:100920006F915F914F913F912F910F900FBE0F905C
:100930001F9018951F920F920FB60F9211242F93AC
:100940008F939F93EF93FF93E0916C01F0916D0172
:100950008081E0917201F091730182FD12C090815B
:10096000809175018F5F8F7320917601821751F00E
:10097000E0917501F0E0E45AFE4F958F8093750188
:1009800001C08081FF91EF919F918F912F910F90E6
:100990000FBE0F901F9018951F920F920FB60F92D7
:1009A00011242F933F938F939F93AF93BF93809185
:1009B0003B0190913C01A0913D01B0913E013091ED
:1009C0003A0123E0230F2D3720F40196A11DB11D1C
:1009D00005C026E8230F0296A11DB11D20933A0100
:1009E00080933B0190933C01A0933D01B0933E0165
:1009F00080913F0190914001A0914101B09142014D
:100A00000196A11DB11D80933F0190934001A093D9
:100A10004101B0934201BF91AF919F918F913F915E
:100A20002F910F900FBE0F901F901895CF92DF92CD
:100A3000EF92FF920F931F93E82FF92F05C00150FB
:100A400011092109310961F1908196239417B9F3B5
:100A500005C0015011092109310911F19081962336
:100A60009413F7CFC12CD12CE12CF12C0AC08FEFBD
:100A7000C81AD80AE80AF80A0C151D052E053F0504
:100A800079F080818623841791F36C2D7D2D8E2D36
:100A90009F2D1F910F91FF90EF90DF90CF900895C1
:100AA00060E070E080E090E01F910F91FF90EF9088
:100AB000DF90CF900895ECE5F1E01382128288EE8A
:100AC00093E0A0E0B0E084839583A683B78385E0BC
:100AD00091E09183808385EC90E09587848784EC16
:100AE00090E09787868780EC90E0918B808B81ECFB
:100AF00090E0938B828B82EC90E0958B848B86ECDC
:100B000090E0978B868B118E128E138E148EE9EFE8
:100B1000F1E01682178210861186128613861486DB
:100B2000158616861786108A118A128A138A148AE5
:100B3000158A0895789484B5826084BD84B58160F7
:100B400084BD85B5826085BD85B5816085BD809198
:100B50006E00816080936E00109281008091810010
:100B60008260809381008091810081608093810008
:100B7000809180008160809380008091B1008460CA
:100B80008093B1008091B00081608093B00080912B
:100B90007A00846080937A0080917A0082608093EA
:100BA0007A0080917A00816080937A0080917A0047
:100BB000806880937A001092C10010923B021092DC
:100BC0003C0210923D0210923E021092FB011092E4
:100BD000FC011092FD011092FE010E94B7036B010F
:100BE0007C014B015C0128EB820E2BE0921EA11CC4
:100BF000B11C0E94B7036C157D058E059F0528F07A
:100C000086169706A806B906A0F760ED77E080E0A3
:100C100090E00E947D030E948D000E94B7036093C4
:100C2000FB017093FC018093FD019093FE0183E131
:100C300091E00E94C3030E94B7036B017C014B014A
:100C40005C013AE0830E911CA11CB11C0E94B70309
:100C50006C157D058E059F0528F086169706A8065B
:100C6000B906A0F781E080930F020E948D0061E039
:100C700083E00E943D0260E082E00E943D0261E06C
:100C800087E00E943D0261E088E00E943D0261E051
:100C900089E00E943D0261E08AE00E943D0261E03D
:100CA0008BE00E943D0261E08CE00E943D0261E029
:100CB0008DE00E943D029BE3892E912CA12CB12C4A
:100CC00028EC222E312CC6E9D0E00E94B703672B16
:100CD000682B692B41F40E94B703623071058105CE
:100CE000910508F4E8C00E94B703C0904701D09076
:100CF0004801E0904901F0904A016C157D058E0590
:100D00009F0540F460934701709348018093490127
:100D100090934A01C0904701D0904801E09049016A
:100D2000F0904A019B01AC012C193D094E095F0965
:100D300069017A013AEFC316D104E104F10408F421
:100D4000BAC0609347017093480180934901909322
:100D50004A0184EF91E0A0E0B0E080930702909315
:100D60000802A0930902B0930A0210920B0210929B
:100D70000C0210920D0210920E028091FF019091D0
:100D80000002A0910102B0910202809303029093AD
:100D90000402A0930502B09306020E94B703609379
:100DA000FF017093000280930102909302020E945F
:100DB000B7036093FB017093FC018093FD01909356
:100DC000FE010E94B7036B017C0185E291E00E9465
:100DD000C3034AE061E070E080E090E00E94D50348
:100DE0008CE291E00E94C3034AE0C701B6010E9471
:100DF000D5038EE291E00E94C3038091FF019091A0
:100E00000002A0910102B0910202A7019601281BE5
:100E1000390B4A0B5B0BCA01B9014AE00E94D503AA
:100E20008EE291E00E94C3038091FF019091000245
:100E3000A0910102B0910202C0900302D09004027E
:100E4000E0900502F0900602BC01CD016C197D090D
:100E50008E099F094AE00E94D50380E391E00E9439
:100E6000C3030E94B7034AE00E94D50382E391E0E6
:100E70000E94C30382E291E00E94C3030E94B70371
:100E80006B017C012B013C0135E0430E511C611CC0
:100E9000711C0E94B7036C157D058E059F0508F037
:100EA00029C10E94B7036093FF01709300028093F1
:100EB00001029093020260E083E00E94C50183E09A
:100EC00090E00197F1F761E083E00E94C50183E2C1
:100ED00090E00197F1F760E083E00E94C501E2E94C
:100EE000F0E06491E0EBF0E08491E82FF0E0EE0FA9
:100EF000FF1FEA57FF4F8591949100E412E42FE021
:100F000030E0462F0E941605611571058105910597
:100F100049F0DC01CB010196A11DB11DBC01CD0141
:100F20009F7003C060E070E0CB01A50194010E94B6
:100F300081083093460120934501CA01B9018827F1
:100F400099274AE00E94D50382E291E00E94C30300
:100F500080914501909146018B309105D8F461E074
:100F60008DE00E94C50161E08CE00E94C50161E056
:100F70008BE00E94C50161E08AE00E94C50161E04A
:100F800089E00E94C50161E088E00E94C5010E94DD
:100F90007902ADC060E083339105D8F08DE00E9406
:100FA000C50160E08CE00E94C50160E08BE00E941A
:100FB000C50160E08AE00E94C50160E089E00E940E
:100FC000C50160E088E00E94C50187E00E9412022E
:100FD0008EC085319105E0F48DE00E94C50160E08E
:100FE0008CE00E94C50161E08BE00E94C50161E0D8
:100FF0008AE00E94C50161E089E00E94C50161E0CC
:1010000088E00E94C501D0934401C09343015CC0B5
:101010008F319105E0F48DE00E94C50160E08CE025
:101020000E94C50160E08BE00E94C50161E08AE09A
:101030000E94C50161E089E00E94C50161E088E08D
:101040000E94C50130924401209243013DC089971E
:10105000F0F48DE00E94C50160E08CE00E94C501C3
:1010600060E08BE00E94C50160E08AE00E94C5015B
:1010700061E089E00E94C50161E088E00E94C5014D
:101080002AEF30E030934401209343011DC08DE0EE
:101090000E94C50160E08CE00E94C50160E08BE029
:1010A0000E94C50160E08AE00E94C50160E089E01D
:1010B0000E94C50161E088E00E94C5014CE251E058
:1010C00050934401409343010E947902C090430130
:1010D000D0904401E12CF12CC701B6010E947D03A0
:1010E00087E00E941202C701B6010E947D030E94A0
:1010F000BB01EBCD461657066806790608F0C9CE47
:10110000D0CEA1E21A2EAA1BBB1BFD010DC0AA1F47
:10111000BB1FEE1FFF1FA217B307E407F50720F060
:10112000A21BB30BE40BF50B661F771F881F991FDB
:101130001A9469F760957095809590959B01AC0124
:10114000BD01CF010895EE0FFF1F0590F491E02D32
:10115000099481E090E0F8940C94AE08F894FFCFE5
:10116000FF000000004C01B500E30099011401F2FA
:10117000000601564D4450565F317C315F564D4458
:1011800050560D0A00564D4450455F003A323A0021
:0A1190007C005F564D4450450000FE
:00000001FF
